{
  "contractName": "Pod",
  "abi": [
    {
      "anonymous": false,
      "inputs": [
        {
          "indexed": true,
          "internalType": "address",
          "name": "owner",
          "type": "address"
        },
        {
          "indexed": true,
          "internalType": "address",
          "name": "spender",
          "type": "address"
        },
        {
          "indexed": false,
          "internalType": "uint256",
          "name": "value",
          "type": "uint256"
        }
      ],
      "name": "Approval",
      "type": "event"
    },
    {
      "anonymous": false,
      "inputs": [
        {
          "indexed": true,
          "internalType": "address",
          "name": "operator",
          "type": "address"
        },
        {
          "indexed": true,
          "internalType": "address",
          "name": "tokenHolder",
          "type": "address"
        }
      ],
      "name": "AuthorizedOperator",
      "type": "event"
    },
    {
      "anonymous": false,
      "inputs": [
        {
          "indexed": true,
          "internalType": "address",
          "name": "operator",
          "type": "address"
        },
        {
          "indexed": true,
          "internalType": "address",
          "name": "from",
          "type": "address"
        },
        {
          "indexed": false,
          "internalType": "uint256",
          "name": "amount",
          "type": "uint256"
        },
        {
          "indexed": false,
          "internalType": "bytes",
          "name": "data",
          "type": "bytes"
        },
        {
          "indexed": false,
          "internalType": "bytes",
          "name": "operatorData",
          "type": "bytes"
        }
      ],
      "name": "Burned",
      "type": "event"
    },
    {
      "anonymous": false,
      "inputs": [
        {
          "indexed": true,
          "internalType": "uint256",
          "name": "timestamp",
          "type": "uint256"
        },
        {
          "indexed": false,
          "internalType": "uint256",
          "name": "tokens",
          "type": "uint256"
        },
        {
          "indexed": false,
          "internalType": "uint256",
          "name": "collateral",
          "type": "uint256"
        },
        {
          "indexed": false,
          "internalType": "uint256",
          "name": "mantissa",
          "type": "uint256"
        }
      ],
      "name": "CollateralizationChanged",
      "type": "event"
    },
    {
      "anonymous": false,
      "inputs": [
        {
          "indexed": true,
          "internalType": "address",
          "name": "operator",
          "type": "address"
        },
        {
          "indexed": true,
          "internalType": "address",
          "name": "from",
          "type": "address"
        },
        {
          "indexed": false,
          "internalType": "uint256",
          "name": "collateral",
          "type": "uint256"
        },
        {
          "indexed": false,
          "internalType": "uint256",
          "name": "drawId",
          "type": "uint256"
        },
        {
          "indexed": false,
          "internalType": "bytes",
          "name": "data",
          "type": "bytes"
        },
        {
          "indexed": false,
          "internalType": "bytes",
          "name": "operatorData",
          "type": "bytes"
        }
      ],
      "name": "Deposited",
      "type": "event"
    },
    {
      "anonymous": false,
      "inputs": [
        {
          "indexed": true,
          "internalType": "address",
          "name": "operator",
          "type": "address"
        },
        {
          "indexed": true,
          "internalType": "address",
          "name": "to",
          "type": "address"
        },
        {
          "indexed": false,
          "internalType": "uint256",
          "name": "amount",
          "type": "uint256"
        },
        {
          "indexed": false,
          "internalType": "bytes",
          "name": "data",
          "type": "bytes"
        },
        {
          "indexed": false,
          "internalType": "bytes",
          "name": "operatorData",
          "type": "bytes"
        }
      ],
      "name": "Minted",
      "type": "event"
    },
    {
      "anonymous": false,
      "inputs": [
        {
          "indexed": true,
          "internalType": "address",
          "name": "operator",
          "type": "address"
        },
        {
          "indexed": true,
          "internalType": "address",
          "name": "from",
          "type": "address"
        },
        {
          "indexed": false,
          "internalType": "uint256",
          "name": "collateral",
          "type": "uint256"
        },
        {
          "indexed": false,
          "internalType": "bytes",
          "name": "data",
          "type": "bytes"
        },
        {
          "indexed": false,
          "internalType": "bytes",
          "name": "operatorData",
          "type": "bytes"
        }
      ],
      "name": "PendingDepositWithdrawn",
      "type": "event"
    },
    {
      "anonymous": false,
      "inputs": [
        {
          "indexed": true,
          "internalType": "address",
          "name": "operator",
          "type": "address"
        },
        {
          "indexed": true,
          "internalType": "address",
          "name": "from",
          "type": "address"
        },
        {
          "indexed": false,
          "internalType": "uint256",
          "name": "amount",
          "type": "uint256"
        },
        {
          "indexed": false,
          "internalType": "uint256",
          "name": "collateral",
          "type": "uint256"
        },
        {
          "indexed": false,
          "internalType": "bytes",
          "name": "data",
          "type": "bytes"
        },
        {
          "indexed": false,
          "internalType": "bytes",
          "name": "operatorData",
          "type": "bytes"
        }
      ],
      "name": "Redeemed",
      "type": "event"
    },
    {
      "anonymous": false,
      "inputs": [
        {
          "indexed": true,
          "internalType": "address",
          "name": "operator",
          "type": "address"
        },
        {
          "indexed": true,
          "internalType": "address",
          "name": "from",
          "type": "address"
        },
        {
          "indexed": false,
          "internalType": "uint256",
          "name": "amount",
          "type": "uint256"
        },
        {
          "indexed": false,
          "internalType": "uint256",
          "name": "collateral",
          "type": "uint256"
        },
        {
          "indexed": false,
          "internalType": "bytes",
          "name": "data",
          "type": "bytes"
        },
        {
          "indexed": false,
          "internalType": "bytes",
          "name": "operatorData",
          "type": "bytes"
        }
      ],
      "name": "RedeemedToPool",
      "type": "event"
    },
    {
      "anonymous": false,
      "inputs": [
        {
          "indexed": true,
          "internalType": "address",
          "name": "operator",
          "type": "address"
        },
        {
          "indexed": true,
          "internalType": "address",
          "name": "tokenHolder",
          "type": "address"
        }
      ],
      "name": "RevokedOperator",
      "type": "event"
    },
    {
      "anonymous": false,
      "inputs": [
        {
          "indexed": true,
          "internalType": "address",
          "name": "operator",
          "type": "address"
        },
        {
          "indexed": true,
          "internalType": "address",
          "name": "from",
          "type": "address"
        },
        {
          "indexed": true,
          "internalType": "address",
          "name": "to",
          "type": "address"
        },
        {
          "indexed": false,
          "internalType": "uint256",
          "name": "amount",
          "type": "uint256"
        },
        {
          "indexed": false,
          "internalType": "bytes",
          "name": "data",
          "type": "bytes"
        },
        {
          "indexed": false,
          "internalType": "bytes",
          "name": "operatorData",
          "type": "bytes"
        }
      ],
      "name": "Sent",
      "type": "event"
    },
    {
      "anonymous": false,
      "inputs": [
        {
          "indexed": true,
          "internalType": "address",
          "name": "from",
          "type": "address"
        },
        {
          "indexed": true,
          "internalType": "address",
          "name": "to",
          "type": "address"
        },
        {
          "indexed": false,
          "internalType": "uint256",
          "name": "value",
          "type": "uint256"
        }
      ],
      "name": "Transfer",
      "type": "event"
    },
    {
      "constant": true,
      "inputs": [
        {
          "internalType": "address",
          "name": "holder",
          "type": "address"
        },
        {
          "internalType": "address",
          "name": "spender",
          "type": "address"
        }
      ],
      "name": "allowance",
      "outputs": [
        {
          "internalType": "uint256",
          "name": "",
          "type": "uint256"
        }
      ],
      "payable": false,
      "stateMutability": "view",
      "type": "function"
    },
    {
      "constant": false,
      "inputs": [
        {
          "internalType": "address",
          "name": "spender",
          "type": "address"
        },
        {
          "internalType": "uint256",
          "name": "value",
          "type": "uint256"
        }
      ],
      "name": "approve",
      "outputs": [
        {
          "internalType": "bool",
          "name": "",
          "type": "bool"
        }
      ],
      "payable": false,
      "stateMutability": "nonpayable",
      "type": "function"
    },
    {
      "constant": false,
      "inputs": [
        {
          "internalType": "address",
          "name": "operator",
          "type": "address"
        }
      ],
      "name": "authorizeOperator",
      "outputs": [],
      "payable": false,
      "stateMutability": "nonpayable",
      "type": "function"
    },
    {
      "constant": true,
      "inputs": [],
      "name": "decimals",
      "outputs": [
        {
          "internalType": "uint8",
          "name": "",
          "type": "uint8"
        }
      ],
      "payable": false,
      "stateMutability": "pure",
      "type": "function"
    },
    {
      "constant": true,
      "inputs": [],
      "name": "defaultOperators",
      "outputs": [
        {
          "internalType": "address[]",
          "name": "",
          "type": "address[]"
        }
      ],
      "payable": false,
      "stateMutability": "view",
      "type": "function"
    },
    {
      "constant": true,
      "inputs": [],
      "name": "granularity",
      "outputs": [
        {
          "internalType": "uint256",
          "name": "",
          "type": "uint256"
        }
      ],
      "payable": false,
      "stateMutability": "view",
      "type": "function"
    },
    {
      "constant": true,
      "inputs": [
        {
          "internalType": "address",
          "name": "operator",
          "type": "address"
        },
        {
          "internalType": "address",
          "name": "tokenHolder",
          "type": "address"
        }
      ],
      "name": "isOperatorFor",
      "outputs": [
        {
          "internalType": "bool",
          "name": "",
          "type": "bool"
        }
      ],
      "payable": false,
      "stateMutability": "view",
      "type": "function"
    },
    {
      "constant": true,
      "inputs": [],
      "name": "name",
      "outputs": [
        {
          "internalType": "string",
          "name": "",
          "type": "string"
        }
      ],
      "payable": false,
      "stateMutability": "view",
      "type": "function"
    },
    {
      "constant": true,
      "inputs": [],
      "name": "pool",
      "outputs": [
        {
          "internalType": "contract MCDAwarePool",
          "name": "",
          "type": "address"
        }
      ],
      "payable": false,
      "stateMutability": "view",
      "type": "function"
    },
    {
      "constant": false,
      "inputs": [
        {
          "internalType": "address",
          "name": "operator",
          "type": "address"
        }
      ],
      "name": "revokeOperator",
      "outputs": [],
      "payable": false,
      "stateMutability": "nonpayable",
      "type": "function"
    },
    {
      "constant": true,
      "inputs": [],
      "name": "symbol",
      "outputs": [
        {
          "internalType": "string",
          "name": "",
          "type": "string"
        }
      ],
      "payable": false,
      "stateMutability": "view",
      "type": "function"
    },
    {
      "constant": false,
      "inputs": [
        {
          "internalType": "contract MCDAwarePool",
          "name": "_pool",
          "type": "address"
        }
      ],
      "name": "initialize",
      "outputs": [],
      "payable": false,
      "stateMutability": "nonpayable",
      "type": "function"
    },
    {
      "constant": false,
      "inputs": [],
      "name": "initialize",
      "outputs": [],
      "payable": false,
      "stateMutability": "nonpayable",
      "type": "function"
    },
    {
      "constant": false,
      "inputs": [
        {
          "internalType": "string",
          "name": "name",
          "type": "string"
        },
        {
          "internalType": "string",
          "name": "symbol",
          "type": "string"
        },
        {
          "internalType": "address[]",
          "name": "defaultOperators",
          "type": "address[]"
        }
      ],
      "name": "initialize",
      "outputs": [],
      "payable": false,
      "stateMutability": "nonpayable",
      "type": "function"
    },
    {
      "constant": false,
      "inputs": [
        {
          "internalType": "address",
          "name": "user",
          "type": "address"
        },
        {
          "internalType": "uint256",
          "name": "amount",
          "type": "uint256"
        },
        {
          "internalType": "bytes",
          "name": "data",
          "type": "bytes"
        },
        {
          "internalType": "bytes",
          "name": "operatorData",
          "type": "bytes"
        }
      ],
      "name": "operatorDeposit",
      "outputs": [],
      "payable": false,
      "stateMutability": "nonpayable",
      "type": "function"
    },
    {
      "constant": false,
      "inputs": [
        {
          "internalType": "uint256",
          "name": "amount",
          "type": "uint256"
        },
        {
          "internalType": "bytes",
          "name": "data",
          "type": "bytes"
        }
      ],
      "name": "deposit",
      "outputs": [],
      "payable": false,
      "stateMutability": "nonpayable",
      "type": "function"
    },
    {
      "constant": false,
      "inputs": [
        {
          "internalType": "address",
          "name": "",
          "type": "address"
        },
        {
          "internalType": "address",
          "name": "from",
          "type": "address"
        },
        {
          "internalType": "address",
          "name": "",
          "type": "address"
        },
        {
          "internalType": "uint256",
          "name": "amount",
          "type": "uint256"
        },
        {
          "internalType": "bytes",
          "name": "",
          "type": "bytes"
        },
        {
          "internalType": "bytes",
          "name": "",
          "type": "bytes"
        }
      ],
      "name": "tokensReceived",
      "outputs": [],
      "payable": false,
      "stateMutability": "nonpayable",
      "type": "function"
    },
    {
      "constant": true,
      "inputs": [
        {
          "internalType": "address",
          "name": "user",
          "type": "address"
        }
      ],
      "name": "balanceOfUnderlying",
      "outputs": [
        {
          "internalType": "uint256",
          "name": "",
          "type": "uint256"
        }
      ],
      "payable": false,
      "stateMutability": "view",
      "type": "function"
    },
    {
      "constant": true,
      "inputs": [
        {
          "internalType": "address",
          "name": "user",
          "type": "address"
        }
      ],
      "name": "pendingDeposit",
      "outputs": [
        {
          "internalType": "uint256",
          "name": "",
          "type": "uint256"
        }
      ],
      "payable": false,
      "stateMutability": "view",
      "type": "function"
    },
    {
      "constant": true,
      "inputs": [],
      "name": "totalPendingDeposits",
      "outputs": [
        {
          "internalType": "uint256",
          "name": "",
          "type": "uint256"
        }
      ],
      "payable": false,
      "stateMutability": "view",
      "type": "function"
    },
    {
      "constant": false,
      "inputs": [
        {
          "internalType": "address",
          "name": "from",
          "type": "address"
        },
        {
          "internalType": "uint256",
          "name": "amount",
          "type": "uint256"
        },
        {
          "internalType": "bytes",
          "name": "data",
          "type": "bytes"
        },
        {
          "internalType": "bytes",
          "name": "operatorData",
          "type": "bytes"
        }
      ],
      "name": "operatorWithdrawPendingDeposit",
      "outputs": [],
      "payable": false,
      "stateMutability": "nonpayable",
      "type": "function"
    },
    {
      "constant": false,
      "inputs": [
        {
          "internalType": "uint256",
          "name": "collateral",
          "type": "uint256"
        }
      ],
      "name": "withdrawAndRedeemCollateral",
      "outputs": [],
      "payable": false,
      "stateMutability": "nonpayable",
      "type": "function"
    },
    {
      "constant": false,
      "inputs": [
        {
          "internalType": "address",
          "name": "from",
          "type": "address"
        },
        {
          "internalType": "uint256",
          "name": "collateral",
          "type": "uint256"
        }
      ],
      "name": "operatorWithdrawAndRedeemCollateral",
      "outputs": [],
      "payable": false,
      "stateMutability": "nonpayable",
      "type": "function"
    },
    {
      "constant": false,
      "inputs": [
        {
          "internalType": "uint256",
          "name": "amount",
          "type": "uint256"
        },
        {
          "internalType": "bytes",
          "name": "data",
          "type": "bytes"
        }
      ],
      "name": "withdrawPendingDeposit",
      "outputs": [],
      "payable": false,
      "stateMutability": "nonpayable",
      "type": "function"
    },
    {
      "constant": false,
      "inputs": [
        {
          "internalType": "address",
          "name": "recipient",
          "type": "address"
        },
        {
          "internalType": "uint256",
          "name": "amount",
          "type": "uint256"
        },
        {
          "internalType": "bytes",
          "name": "data",
          "type": "bytes"
        }
      ],
      "name": "send",
      "outputs": [],
      "payable": false,
      "stateMutability": "nonpayable",
      "type": "function"
    },
    {
      "constant": false,
      "inputs": [
        {
          "internalType": "address",
          "name": "sender",
          "type": "address"
        },
        {
          "internalType": "address",
          "name": "recipient",
          "type": "address"
        },
        {
          "internalType": "uint256",
          "name": "amount",
          "type": "uint256"
        },
        {
          "internalType": "bytes",
          "name": "data",
          "type": "bytes"
        },
        {
          "internalType": "bytes",
          "name": "operatorData",
          "type": "bytes"
        }
      ],
      "name": "operatorSend",
      "outputs": [],
      "payable": false,
      "stateMutability": "nonpayable",
      "type": "function"
    },
    {
      "constant": true,
      "inputs": [
        {
          "internalType": "address",
          "name": "tokenHolder",
          "type": "address"
        }
      ],
      "name": "balanceOf",
      "outputs": [
        {
          "internalType": "uint256",
          "name": "",
          "type": "uint256"
        }
      ],
      "payable": false,
      "stateMutability": "view",
      "type": "function"
    },
    {
      "constant": true,
      "inputs": [],
      "name": "totalSupply",
      "outputs": [
        {
          "internalType": "uint256",
          "name": "",
          "type": "uint256"
        }
      ],
      "payable": false,
      "stateMutability": "view",
      "type": "function"
    },
    {
      "constant": false,
      "inputs": [
        {
          "internalType": "address",
          "name": "recipient",
          "type": "address"
        },
        {
          "internalType": "uint256",
          "name": "amount",
          "type": "uint256"
        }
      ],
      "name": "transfer",
      "outputs": [
        {
          "internalType": "bool",
          "name": "",
          "type": "bool"
        }
      ],
      "payable": false,
      "stateMutability": "nonpayable",
      "type": "function"
    },
    {
      "constant": false,
      "inputs": [
        {
          "internalType": "address",
          "name": "sender",
          "type": "address"
        },
        {
          "internalType": "address",
          "name": "recipient",
          "type": "address"
        },
        {
          "internalType": "uint256",
          "name": "amount",
          "type": "uint256"
        }
      ],
      "name": "transferFrom",
      "outputs": [
        {
          "internalType": "bool",
          "name": "",
          "type": "bool"
        }
      ],
      "payable": false,
      "stateMutability": "nonpayable",
      "type": "function"
    },
    {
      "constant": false,
      "inputs": [
        {
          "internalType": "address",
          "name": "",
          "type": "address"
        },
        {
          "internalType": "uint256",
          "name": "",
          "type": "uint256"
        },
        {
          "internalType": "bytes",
          "name": "",
          "type": "bytes"
        },
        {
          "internalType": "bytes",
          "name": "",
          "type": "bytes"
        }
      ],
      "name": "operatorBurn",
      "outputs": [],
      "payable": false,
      "stateMutability": "nonpayable",
      "type": "function"
    },
    {
      "constant": false,
      "inputs": [
        {
          "internalType": "uint256",
          "name": "",
          "type": "uint256"
        },
        {
          "internalType": "bytes",
          "name": "",
          "type": "bytes"
        }
      ],
      "name": "burn",
      "outputs": [],
      "payable": false,
      "stateMutability": "nonpayable",
      "type": "function"
    },
    {
      "constant": false,
      "inputs": [
        {
          "internalType": "address",
          "name": "",
          "type": "address"
        },
        {
          "internalType": "uint256",
          "name": "winnings",
          "type": "uint256"
        },
        {
          "internalType": "uint256",
          "name": "drawId",
          "type": "uint256"
        }
      ],
      "name": "rewarded",
      "outputs": [],
      "payable": false,
      "stateMutability": "nonpayable",
      "type": "function"
    },
    {
      "constant": true,
      "inputs": [],
      "name": "currentExchangeRateMantissa",
      "outputs": [
        {
          "internalType": "uint256",
          "name": "",
          "type": "uint256"
        }
      ],
      "payable": false,
      "stateMutability": "view",
      "type": "function"
    },
    {
      "constant": false,
      "inputs": [
        {
          "internalType": "address",
          "name": "account",
          "type": "address"
        },
        {
          "internalType": "uint256",
          "name": "amount",
          "type": "uint256"
        },
        {
          "internalType": "bytes",
          "name": "data",
          "type": "bytes"
        },
        {
          "internalType": "bytes",
          "name": "operatorData",
          "type": "bytes"
        }
      ],
      "name": "operatorRedeem",
      "outputs": [],
      "payable": false,
      "stateMutability": "nonpayable",
      "type": "function"
    },
    {
      "constant": false,
      "inputs": [
        {
          "internalType": "uint256",
          "name": "amount",
          "type": "uint256"
        },
        {
          "internalType": "bytes",
          "name": "data",
          "type": "bytes"
        }
      ],
      "name": "redeem",
      "outputs": [],
      "payable": false,
      "stateMutability": "nonpayable",
      "type": "function"
    },
    {
      "constant": false,
      "inputs": [
        {
          "internalType": "address",
          "name": "account",
          "type": "address"
        },
        {
          "internalType": "uint256",
          "name": "amount",
          "type": "uint256"
        },
        {
          "internalType": "bytes",
          "name": "data",
          "type": "bytes"
        },
        {
          "internalType": "bytes",
          "name": "operatorData",
          "type": "bytes"
        }
      ],
      "name": "operatorRedeemToPool",
      "outputs": [],
      "payable": false,
      "stateMutability": "nonpayable",
      "type": "function"
    },
    {
      "constant": false,
      "inputs": [
        {
          "internalType": "uint256",
          "name": "amount",
          "type": "uint256"
        },
        {
          "internalType": "bytes",
          "name": "data",
          "type": "bytes"
        }
      ],
      "name": "redeemToPool",
      "outputs": [],
      "payable": false,
      "stateMutability": "nonpayable",
      "type": "function"
    },
    {
      "constant": true,
      "inputs": [
        {
          "internalType": "uint256",
          "name": "tokens",
          "type": "uint256"
        }
      ],
      "name": "tokenToCollateralValue",
      "outputs": [
        {
          "internalType": "uint256",
          "name": "",
          "type": "uint256"
        }
      ],
      "payable": false,
      "stateMutability": "view",
      "type": "function"
    },
    {
      "constant": true,
      "inputs": [
        {
          "internalType": "uint256",
          "name": "collateral",
          "type": "uint256"
        }
      ],
      "name": "collateralToTokenValue",
      "outputs": [
        {
          "internalType": "uint256",
          "name": "",
          "type": "uint256"
        }
      ],
      "payable": false,
      "stateMutability": "view",
      "type": "function"
    }
  ],
  "bytecode": "0x608060405261518e806100136000396000f3fe608060405234801561001057600080fd5b50600436106102475760003560e01c8063807ae2431161013b578063ca275931116100b8578063e5adec811161007c578063e5adec8114610f39578063e77c646d14610f56578063fad8b32a14610fcb578063fc673c4f14610ff1578063fe9d93031461112f57610247565b8063ca27593114610c42578063d67d7a7d14610ded578063d7d5b92814610e0a578063d95b637114610edd578063dd62ed3e14610f0b57610247565b806395d89b41116100ff57806395d89b4114610a5c5780639bd9bbc614610a64578063a9059cbb14610b1d578063ad3eda7d14610b49578063c4d66de814610c1c57610247565b8063807ae243146109945780638129fc1c1461099c5780638adce39d146109a45780638d3a03b5146109c1578063959b8c3f14610a3657610247565b806323b872dd116101c9578063556f0dc71161018d578063556f0dc7146106d55780635d303519146106dd5780635e336b771461075257806362ad1b831461082557806370a082311461096e57610247565b806323b872dd14610609578063313ce5671461063f5780633a64b4921461065d5780633af9e6691461068357806345dd6306146106a957610247565b80630a881082116102105780630a881082146104be57806316f0115b146104d857806318160ddd146104fc57806318b54be3146105045780631aa04968146105d757610247565b806223de291461024c57806303ac4eb41461033457806306e48538146103a957806306fdde0314610401578063095ea7b31461047e575b600080fd5b610332600480360360c081101561026257600080fd5b6001600160a01b03823581169260208101358216926040820135909216916060820135919081019060a081016080820135600160201b8111156102a457600080fd5b8201836020820111156102b657600080fd5b803590602001918460018302840111600160201b831117156102d757600080fd5b919390929091602081019035600160201b8111156102f457600080fd5b82018360208201111561030657600080fd5b803590602001918460018302840111600160201b8311171561032757600080fd5b509092509050611166565b005b6103326004803603604081101561034a57600080fd5b81359190810190604081016020820135600160201b81111561036b57600080fd5b82018360208201111561037d57600080fd5b803590602001918460018302840111600160201b8311171561039e57600080fd5b50909250905061131d565b6103b16113c4565b60408051602080825283518183015283519192839290830191858101910280838360005b838110156103ed5781810151838201526020016103d5565b505050509050019250505060405180910390f35b610409611427565b6040805160208082528351818301528351919283929083019185019080838360005b8381101561044357818101518382015260200161042b565b50505050905090810190601f1680156104705780820380516001836020036101000a031916815260200191505b509250505060405180910390f35b6104aa6004803603604081101561049457600080fd5b506001600160a01b0381351690602001356114b4565b604080519115158252519081900360200190f35b6104c66114d6565b60408051918252519081900360200190f35b6104e06115cd565b604080516001600160a01b039092168252519081900360200190f35b6104c66115dc565b6103326004803603608081101561051a57600080fd5b6001600160a01b0382351691602081013591810190606081016040820135600160201b81111561054957600080fd5b82018360208201111561055b57600080fd5b803590602001918460018302840111600160201b8311171561057c57600080fd5b919390929091602081019035600160201b81111561059957600080fd5b8201836020820111156105ab57600080fd5b803590602001918460018302840111600160201b831117156105cc57600080fd5b5090925090506116a1565b610332600480360360608110156105ed57600080fd5b506001600160a01b03813516906020810135906040013561171f565b6104aa6004803603606081101561061f57600080fd5b506001600160a01b03813581169160208101359091169060400135611852565b610647611870565b6040805160ff9092168252519081900360200190f35b6104c66004803603602081101561067357600080fd5b50356001600160a01b0316611875565b6104c66004803603602081101561069957600080fd5b50356001600160a01b03166119c7565b610332600480360360408110156106bf57600080fd5b506001600160a01b0381351690602001356119e9565b6104c6611a90565b610332600480360360408110156106f357600080fd5b81359190810190604081016020820135600160201b81111561071457600080fd5b82018360208201111561072657600080fd5b803590602001918460018302840111600160201b8311171561074757600080fd5b509092509050611a95565b6103326004803603608081101561076857600080fd5b6001600160a01b0382351691602081013591810190606081016040820135600160201b81111561079757600080fd5b8201836020820111156107a957600080fd5b803590602001918460018302840111600160201b831117156107ca57600080fd5b919390929091602081019035600160201b8111156107e757600080fd5b8201836020820111156107f957600080fd5b803590602001918460018302840111600160201b8311171561081a57600080fd5b509092509050611ae5565b610332600480360360a081101561083b57600080fd5b6001600160a01b03823581169260208101359091169160408201359190810190608081016060820135600160201b81111561087557600080fd5b82018360208201111561088757600080fd5b803590602001918460018302840111600160201b831117156108a857600080fd5b91908080601f0160208091040260200160405190810160405280939291908181526020018383808284376000920191909152509295949360208101935035915050600160201b8111156108fa57600080fd5b82018360208201111561090c57600080fd5b803590602001918460018302840111600160201b8311171561092d57600080fd5b91908080601f016020809104026020016040519081016040528093929190818152602001838380828437600092019190915250929550611ba3945050505050565b6104c66004803603602081101561098457600080fd5b50356001600160a01b0316611bc0565b6104c6611c89565b610332611c9b565b6104c6600480360360208110156109ba57600080fd5b5035611d42565b610332600480360360408110156109d757600080fd5b81359190810190604081016020820135600160201b8111156109f857600080fd5b820183602082011115610a0a57600080fd5b803590602001918460018302840111600160201b83111715610a2b57600080fd5b509092509050611d55565b61033260048036036020811015610a4c57600080fd5b50356001600160a01b0316611da5565b610409611ef1565b61033260048036036060811015610a7a57600080fd5b6001600160a01b0382351691602081013591810190606081016040820135600160201b811115610aa957600080fd5b820183602082011115610abb57600080fd5b803590602001918460018302840111600160201b83111715610adc57600080fd5b91908080601f016020809104026020016040519081016040528093929190818152602001838380828437600092019190915250929550611f52945050505050565b6104aa60048036036040811015610b3357600080fd5b506001600160a01b038135169060200135611f66565b61033260048036036080811015610b5f57600080fd5b6001600160a01b0382351691602081013591810190606081016040820135600160201b811115610b8e57600080fd5b820183602082011115610ba057600080fd5b803590602001918460018302840111600160201b83111715610bc157600080fd5b919390929091602081019035600160201b811115610bde57600080fd5b820183602082011115610bf057600080fd5b803590602001918460018302840111600160201b83111715610c1157600080fd5b509092509050611f7b565b61033260048036036020811015610c3257600080fd5b50356001600160a01b0316612091565b61033260048036036060811015610c5857600080fd5b810190602081018135600160201b811115610c7257600080fd5b820183602082011115610c8457600080fd5b803590602001918460018302840111600160201b83111715610ca557600080fd5b91908080601f0160208091040260200160405190810160405280939291908181526020018383808284376000920191909152509295949360208101935035915050600160201b811115610cf757600080fd5b820183602082011115610d0957600080fd5b803590602001918460018302840111600160201b83111715610d2a57600080fd5b91908080601f0160208091040260200160405190810160405280939291908181526020018383808284376000920191909152509295949360208101935035915050600160201b811115610d7c57600080fd5b820183602082011115610d8e57600080fd5b803590602001918460208302840111600160201b83111715610daf57600080fd5b9190808060200260200160405190810160405280939291908181526020018383602002808284376000920191909152509295506122e2945050505050565b6104c660048036036020811015610e0357600080fd5b5035612548565b61033260048036036080811015610e2057600080fd5b6001600160a01b0382351691602081013591810190606081016040820135600160201b811115610e4f57600080fd5b820183602082011115610e6157600080fd5b803590602001918460018302840111600160201b83111715610e8257600080fd5b919390929091602081019035600160201b811115610e9f57600080fd5b820183602082011115610eb157600080fd5b803590602001918460018302840111600160201b83111715610ed257600080fd5b50909250905061255b565b6104aa60048036036040811015610ef357600080fd5b506001600160a01b0381358116916020013516612624565b6104c660048036036040811015610f2157600080fd5b506001600160a01b03813581169160200135166126c5565b61033260048036036020811015610f4f57600080fd5b50356126f0565b61033260048036036040811015610f6c57600080fd5b81359190810190604081016020820135600160201b811115610f8d57600080fd5b820183602082011115610f9f57600080fd5b803590602001918460018302840111600160201b83111715610fc057600080fd5b50909250905061274a565b61033260048036036020811015610fe157600080fd5b50356001600160a01b03166127a7565b6103326004803603608081101561100757600080fd5b6001600160a01b0382351691602081013591810190606081016040820135600160201b81111561103657600080fd5b82018360208201111561104857600080fd5b803590602001918460018302840111600160201b8311171561106957600080fd5b91908080601f0160208091040260200160405190810160405280939291908181526020018383808284376000920191909152509295949360208101935035915050600160201b8111156110bb57600080fd5b8201836020820111156110cd57600080fd5b803590602001918460018302840111600160201b831117156110ee57600080fd5b91908080601f0160208091040260200160405190810160405280939291908181526020018383808284376000920191909152509295506128f3945050505050565b6103326004803603604081101561114557600080fd5b81359190810190604081016020820135600160201b8111156110bb57600080fd5b60a560009054906101000a90046001600160a01b03166001600160a01b031663cbdf382c6040518163ffffffff1660e01b815260040160206040518083038186803b1580156111b457600080fd5b505afa1580156111c8573d6000803e3d6000fd5b505050506040513d60208110156111de57600080fd5b50516001600160a01b031633141561123f576111f98761292c565b600061120c60a48763ffffffff612a4816565b90506112393089836040518060200160405280600081525060405180602001604052806000815250612adc565b50611313565b333014806112ce575060a560009054906101000a90046001600160a01b03166001600160a01b031663fc0c546a6040518163ffffffff1660e01b815260040160206040518083038186803b15801561129657600080fd5b505afa1580156112aa573d6000803e3d6000fd5b505050506040513d60208110156112c057600080fd5b50516001600160a01b031633145b611313576040805162461bcd60e51b81526020600482015260116024820152702837b217bab735b737bbb716ba37b5b2b760791b604482015290519081900360640190fd5b5050505050505050565b606e805460010190819055604080516020601f850181900481028201810190925283815261137a91339182918891908890889081908401838280828437600092018290525060408051602081019091529081529250612d07915050565b606e5481146113be576040805162461bcd60e51b815260206004820152601f6024820152600080516020614f77833981519152604482015290519081900360640190fd5b50505050565b6060603780548060200260200160405190810160405280929190818152602001828054801561141c57602002820191906000526020600020905b81546001600160a01b031681526001909101906020018083116113fe575b505050505090505b90565b60358054604080516020601f600260001961010060018816150201909516949094049384018190048102820181019092528281526060939092909183018282801561141c5780601f106114885761010080835404028352916020019161141c565b820191906000526020600020905b81548152906001019060200180831161149657509395945050505050565b6000806114bf612f53565b90506114cc818585612f57565b5060019392505050565b60008061156460a560009054906101000a90046001600160a01b03166001600160a01b0316637f77fc4d6040518163ffffffff1660e01b815260040160206040518083038186803b15801561152a57600080fd5b505afa15801561153e573d6000803e3d6000fd5b505050506040513d602081101561155457600080fd5b505160a19063ffffffff612ffe16565b90506115c7816115bb60a560009054906101000a90046001600160a01b03166001600160a01b031663304c96706040518163ffffffff1660e01b815260040160206040518083038186803b15801561152a57600080fd5b9063ffffffff61301416565b91505090565b60a5546001600160a01b031681565b600080600061166c60a560009054906101000a90046001600160a01b03166001600160a01b0316637f77fc4d6040518163ffffffff1660e01b815260040160206040518083038186803b15801561163257600080fd5b505afa158015611646573d6000803e3d6000fd5b505050506040513d602081101561165c57600080fd5b505160a19063ffffffff61305616565b909250905061169a61168660a4848463ffffffff61307516565b61168e61312f565b9063ffffffff61313516565b9250505090565b61171733878787878080601f01602080910402602001604051908101604052809392919081815260200183838082843760009201919091525050604080516020601f8b01819004810282018101909252898152925089915088908190840183828082843760009201919091525061318f92505050565b505050505050565b606e80546001019081905560a5546001600160a01b03163314611779576040805162461bcd60e51b815260206004820152600d60248201526c141bd90bdbdb9b1e4b5c1bdbdb609a1b604482015290519081900360640190fd5b60006117836115dc565b9050600061179c8561168e60a48563ffffffff61361c16565b905060006117c683836117b688600163ffffffff61313516565b60a492919063ffffffff61367d16565b6040805185815260208101859052808201839052905191925086917f3c85af6bb3c5f67c404d53d1357995591840bcc7e5c21a96549351b80cd1b25e9181900360600190a2505050606e5481146113be576040805162461bcd60e51b815260206004820152601f6024820152600080516020614f77833981519152604482015290519081900360640190fd5b600061185d8461292c565b6118688484846137de565b949350505050565b601290565b60008061191960a560009054906101000a90046001600160a01b03166001600160a01b0316637f77fc4d6040518163ffffffff1660e01b815260040160206040518083038186803b1580156118c957600080fd5b505afa1580156118dd573d6000803e3d6000fd5b505050506040513d60208110156118f357600080fd5b50516001600160a01b038516600090815260a3602052604090209063ffffffff612ffe16565b90506119c0816115bb60a560009054906101000a90046001600160a01b03166001600160a01b031663304c96706040518163ffffffff1660e01b815260040160206040518083038186803b15801561197057600080fd5b505afa158015611984573d6000803e3d6000fd5b505050506040513d602081101561199a57600080fd5b50516001600160a01b038716600090815260a3602052604090209063ffffffff612ffe16565b9392505050565b60006119e36119d583611bc0565b60a49063ffffffff61361c16565b92915050565b606e8054600101908190556119fe3384612624565b611a3c576040805162461bcd60e51b815260206004820152600a6024820152690506f642f6e6f742d6f760b41b604482015290519081900360640190fd5b611a47338484613961565b606e548114611a8b576040805162461bcd60e51b815260206004820152601f6024820152600080516020614f77833981519152604482015290519081900360640190fd5b505050565b600190565b611a8b33338585858080601f01602080910402602001604051908101604052809392919081815260200183838082843760009201829052506040805160208101909152908152925061318f915050565b611aef3387612624565b611b2d576040805162461bcd60e51b815260206004820152600a6024820152690506f642f6e6f742d6f760b41b604482015290519081900360640190fd5b61171733878787878080601f01602080910402602001604051908101604052809392919081815260200183838082843760009201919091525050604080516020601f8b018190048102820181019092528981529250899150889081908401838280828437600092019190915250613a2b92505050565b611bac8561292c565b611bb98585858585613ced565b5050505050565b6000806000611c6660a560009054906101000a90046001600160a01b03166001600160a01b0316637f77fc4d6040518163ffffffff1660e01b815260040160206040518083038186803b158015611c1657600080fd5b505afa158015611c2a573d6000803e3d6000fd5b505050506040513d6020811015611c4057600080fd5b50516001600160a01b038616600090815260a3602052604090209063ffffffff61305616565b9092509050611868611c8060a4848463ffffffff61307516565b61168e86613d50565b6000611c9560a4613d6b565b54905090565b600054610100900460ff1680611cb45750611cb4613da0565b80611cc2575060005460ff16155b611cfd5760405162461bcd60e51b815260040180806020018281038252602e815260200180615047602e913960400191505060405180910390fd5b600054610100900460ff16158015611d28576000805460ff1961ff0019909116610100171660011790555b6001606e558015611d3f576000805461ff00191690555b50565b60006119e360a48363ffffffff612a4816565b611a8b33338585858080601f016020809104026020016040519081016040528093929190818152602001838380828437600092018290525060408051602081019091529081529250613a2b915050565b806001600160a01b0316611db7612f53565b6001600160a01b03161415611dfd5760405162461bcd60e51b81526004018080602001828103825260248152602001806150026024913960400191505060405180910390fd5b6001600160a01b03811660009081526038602052604090205460ff1615611e6057603a6000611e2a612f53565b6001600160a01b03908116825260208083019390935260409182016000908120918516815292529020805460ff19169055611ea7565b600160396000611e6e612f53565b6001600160a01b03908116825260208083019390935260409182016000908120918616815292529020805460ff19169115159190911790555b611eaf612f53565b6001600160a01b0316816001600160a01b03167ff4caeb2d6ca8932a215a353d0703c326ec2d81fc68170f320eb2ab49e9df61f960405160405180910390a350565b60368054604080516020601f600260001961010060018816150201909516949094049384018190048102820181019092528281526060939092909183018282801561141c5780601f106114885761010080835404028352916020019161141c565b611f5b3361292c565b611a8b838383613da6565b6000611f713361292c565b6119c08383613dd3565b606e805460010190819055611f903388612624565b611fce576040805162461bcd60e51b815260206004820152600a6024820152690506f642f6e6f742d6f760b41b604482015290519081900360640190fd5b61204433888888888080601f01602080910402602001604051908101604052809392919081815260200183838082843760009201919091525050604080516020601f8c018190048102820181019092528a815292508a9150899081908401838280828437600092019190915250612d0792505050565b606e548114612088576040805162461bcd60e51b815260206004820152601f6024820152600080516020614f77833981519152604482015290519081900360640190fd5b50505050505050565b600054610100900460ff16806120aa57506120aa613da0565b806120b8575060005460ff16155b6120f35760405162461bcd60e51b815260040180806020018281038252602e815260200180615047602e913960400191505060405180910390fd5b600054610100900460ff1615801561211e576000805460ff1961ff0019909116610100171660011790555b6001600160a01b038216612168576040805162461bcd60e51b815260206004820152600c60248201526b2837b217b837b7b616b232b360a11b604482015290519081900360640190fd5b61218360a469d3c21bcecceda100000063ffffffff613eac16565b60a580546001600160a01b0319166001600160a01b038416179055604080516329965a1d60e01b815230600482018190527fb281fc8c12954d22544db45de3159a39272895b169a852b314f9cc762e44c53b602483015260448201529051731820a4b7618bde71dce8cdc73aab6c95905fad24916329965a1d91606480830192600092919082900301818387803b15801561221d57600080fd5b505af1158015612231573d6000803e3d6000fd5b5050604080516329965a1d60e01b815230600482018190527f68f03b0b1a978ee238a70b362091d993343460bc1a2830ab3f708936d9f564a4602483015260448201529051731820a4b7618bde71dce8cdc73aab6c95905fad2493506329965a1d9250606480830192600092919082900301818387803b1580156122b457600080fd5b505af11580156122c8573d6000803e3d6000fd5b5050505080156122de576000805461ff00191690555b5050565b600054610100900460ff16806122fb57506122fb613da0565b80612309575060005460ff16155b6123445760405162461bcd60e51b815260040180806020018281038252602e815260200180615047602e913960400191505060405180910390fd5b600054610100900460ff1615801561236f576000805460ff1961ff0019909116610100171660011790555b8351612382906035906020870190614e46565b508251612396906036906020860190614e46565b5081516123aa906037906020850190614ec4565b5060005b60375481101561240757600160386000603784815481106123cb57fe5b6000918252602080832091909101546001600160a01b031683528201929092526040019020805460ff19169115159190911790556001016123ae565b50604080516a22a9219b9b9baa37b5b2b760a91b8152815190819003600b0181206329965a1d60e01b82523060048301819052602483019190915260448201529051731820a4b7618bde71dce8cdc73aab6c95905fad24916329965a1d91606480830192600092919082900301818387803b15801561248557600080fd5b505af1158015612499573d6000803e3d6000fd5b5050604080516922a92199182a37b5b2b760b11b8152815190819003600a0181206329965a1d60e01b82523060048301819052602483019190915260448201529051731820a4b7618bde71dce8cdc73aab6c95905fad2493506329965a1d9250606480830192600092919082900301818387803b15801561251957600080fd5b505af115801561252d573d6000803e3d6000fd5b5050505080156113be576000805461ff001916905550505050565b60006119e360a48363ffffffff61361c16565b606e8054600101908190556125703388612624565b6125ae576040805162461bcd60e51b815260206004820152600a6024820152690506f642f6e6f742d6f760b41b604482015290519081900360640190fd5b61204433888888888080601f01602080910402602001604051908101604052809392919081815260200183838082843760009201919091525050604080516020601f8c018190048102820181019092528a815292508a9150899081908401838280828437600092019190915250613f9892505050565b6000816001600160a01b0316836001600160a01b0316148061268f57506001600160a01b03831660009081526038602052604090205460ff16801561268f57506001600160a01b038083166000908152603a602090815260408083209387168352929052205460ff16155b806119c05750506001600160a01b0390811660009081526039602090815260408083209490931682529290925290205460ff1690565b6001600160a01b039182166000908152603b6020908152604080832093909416825291909152205490565b606e805460010190819055612706338084613961565b606e5481146122de576040805162461bcd60e51b815260206004820152601f6024820152600080516020614f77833981519152604482015290519081900360640190fd5b606e805460010190819055604080516020601f850181900481028201810190925283815261137a91339182918891908890889081908401838280828437600092018290525060408051602081019091529081529250613f98915050565b6127af612f53565b6001600160a01b0316816001600160a01b031614156127ff5760405162461bcd60e51b81526004018080602001828103825260218152602001806150266021913960400191505060405180910390fd5b6001600160a01b03811660009081526038602052604090205460ff161561286b576001603a600061282e612f53565b6001600160a01b03908116825260208083019390935260409182016000908120918616815292529020805460ff19169115159190911790556128a9565b60396000612877612f53565b6001600160a01b03908116825260208083019390935260409182016000908120918516815292529020805460ff191690555b6128b1612f53565b6001600160a01b0316816001600160a01b03167f50546e66e5f44d728365dc3908c63bc5cfeeab470722c1677e3073a6ac294aa160405160405180910390a350565b6040805162461bcd60e51b81526020600482015260096024820152680506f642f6e6f2d6f760bc1b604482015290519081900360640190fd5b6129346141a8565b6000806129d860a560009054906101000a90046001600160a01b03166001600160a01b0316637f77fc4d6040518163ffffffff1660e01b815260040160206040518083038186803b15801561298857600080fd5b505afa15801561299c573d6000803e3d6000fd5b505050506040513d60208110156129b257600080fd5b50516001600160a01b038516600090815260a3602052604090209063ffffffff61305616565b909250905060006129f160a4848463ffffffff61307516565b905080156113be576001600160a01b038416600090815260a360205260409020612a1a90614252565b6113be303086846040518060200160405280600081525060405180602001604052806000815250600161425f565b600073__FixedPoint____________________________6373710cd8612a6d85613d6b565b846040518363ffffffff1660e01b8152600401808381526020018281526020019250505060206040518083038186803b158015612aa957600080fd5b505af4158015612abd573d6000803e3d6000fd5b505050506040513d6020811015612ad357600080fd5b50519392505050565b6001600160a01b038416612b37576040805162461bcd60e51b815260206004820181905260248201527f4552433737373a206d696e7420746f20746865207a65726f2061646472657373604482015290519081900360640190fd5b603454612b4a908463ffffffff61313516565b6034556001600160a01b038416600090815260336020526040902054612b76908463ffffffff61313516565b6001600160a01b038516600090815260336020526040812091909155612ba3908690868686866001614326565b836001600160a01b0316856001600160a01b03167f2fe5be0146f74c5bce36c0b80911af6c7d86ff27e89d5cfa61fc681327954e5d858585604051808481526020018060200180602001838103835285818151815260200191508051906020019080838360005b83811015612c22578181015183820152602001612c0a565b50505050905090810190601f168015612c4f5780820380516001836020036101000a031916815260200191505b50838103825284518152845160209182019186019080838360005b83811015612c82578181015183820152602001612c6a565b50505050905090810190601f168015612caf5780820380516001836020036101000a031916815260200191505b509550505050505060405180910390a36040805184815290516001600160a01b038616916000917fddf252ad1be2c89b69c2b068fc378daa952ba7f163c4a11628f55a4df523b3ef9181900360200190a35050505050565b612d108461292c565b6000612d2360a48563ffffffff61361c16565b905060a560009054906101000a90046001600160a01b03166001600160a01b031663cbdf382c6040518163ffffffff1660e01b815260040160206040518083038186803b158015612d7357600080fd5b505afa158015612d87573d6000803e3d6000fd5b505050506040513d6020811015612d9d57600080fd5b50516040805163a9059cbb60e01b81526001600160a01b038881166004830152602482018590529151919092169163a9059cbb9160448083019260209291908290030181600087803b158015612df257600080fd5b505af1158015612e06573d6000803e3d6000fd5b505050506040513d6020811015612e1c57600080fd5b5050604080518581526020818101849052608092820183815286519383019390935285516001600160a01b03808a1694908b16937ffd1e954975ca570af8596fda61cfead25f8f5bf19126563b1ae9e954569b95fe938a9388938b938b939092606084019160a08501919087019080838360005b83811015612ea8578181015183820152602001612e90565b50505050905090810190601f168015612ed55780820380516001836020036101000a031916815260200191505b50838103825284518152845160209182019186019080838360005b83811015612f08578181015183820152602001612ef0565b50505050905090810190601f168015612f355780820380516001836020036101000a031916815260200191505b50965050505050505060405180910390a3611717868686868661456d565b3390565b6001600160a01b038216612f9c5760405162461bcd60e51b81526004018080602001828103825260238152602001806151376023913960400191505060405180910390fd5b6001600160a01b038084166000818152603b6020908152604080832094871680845294825291829020859055815185815291517f8c5be1e5ebec7d5bd14f71427d1e84f3dd0314c0f7b2291e5b200ac8c7c3b9259281900390910190a3505050565b60008061300b8484613056565b50949350505050565b60006119c083836040518060400160405280601e81526020017f536166654d6174683a207375627472616374696f6e206f766572666c6f77000081525061479a565b6000808284600101541161306e575050815460018301545b9250929050565b6000806130828584614831565b905073__FixedPoint____________________________6373710cd88660000183815481106130ad57fe5b9060005260206000209060020201600101866040518363ffffffff1660e01b8152600401808381526020018281526020019250505060206040518083038186803b1580156130fa57600080fd5b505af415801561310e573d6000803e3d6000fd5b505050506040513d602081101561312457600080fd5b505195945050505050565b60345490565b6000828201838110156119c0576040805162461bcd60e51b815260206004820152601b60248201527f536166654d6174683a206164646974696f6e206f766572666c6f770000000000604482015290519081900360640190fd5b606e8054600101908190556131a38561292c565b60a560009054906101000a90046001600160a01b03166001600160a01b031663fc0c546a6040518163ffffffff1660e01b815260040160206040518083038186803b1580156131f157600080fd5b505afa158015613205573d6000803e3d6000fd5b505050506040513d602081101561321b57600080fd5b5051604080516323b872dd60e01b81526001600160a01b03888116600483015230602483015260448201889052915191909216916323b872dd9160648083019260209291908290030181600087803b15801561327657600080fd5b505af115801561328a573d6000803e3d6000fd5b505050506040513d60208110156132a057600080fd5b505060a55460408051637e062a3560e11b815290516001600160a01b039092169163fc0c546a91600480820192602092909190829003018186803b1580156132e757600080fd5b505afa1580156132fb573d6000803e3d6000fd5b505050506040513d602081101561331157600080fd5b505160a5546040805163095ea7b360e01b81526001600160a01b039283166004820152602481018890529051919092169163095ea7b39160448083019260209291908290030181600087803b15801561336957600080fd5b505af115801561337d573d6000803e3d6000fd5b505050506040513d602081101561339357600080fd5b505060a554604080516308d1025160e21b81526004810187905290516001600160a01b039092169163234409449160248082019260009290919082900301818387803b1580156133e257600080fd5b505af11580156133f6573d6000803e3d6000fd5b50505050600060a560009054906101000a90046001600160a01b03166001600160a01b031663304c96706040518163ffffffff1660e01b815260040160206040518083038186803b15801561344a57600080fd5b505afa15801561345e573d6000803e3d6000fd5b505050506040513d602081101561347457600080fd5b5051905061348a60a1868363ffffffff61489b16565b6001600160a01b038616600090815260a3602052604090206134b390868363ffffffff61489b16565b856001600160a01b0316876001600160a01b03167f116d2f47b438c3fc24b180b3b2136623f8821bfe4cb43f9a8c8068347868d08487848888604051808581526020018481526020018060200180602001838103835285818151815260200191508051906020019080838360005b83811015613539578181015183820152602001613521565b50505050905090810190601f1680156135665780820380516001836020036101000a031916815260200191505b50838103825284518152845160209182019186019080838360005b83811015613599578181015183820152602001613581565b50505050905090810190601f1680156135c65780820380516001836020036101000a031916815260200191505b50965050505050505060405180910390a350606e548114611717576040805162461bcd60e51b815260206004820152601f6024820152600080516020614f77833981519152604482015290519081900360640190fd5b600073__FixedPoint____________________________6364fb38b78361364286613d6b565b6040518363ffffffff1660e01b8152600401808381526020018281526020019250505060206040518083038186803b158015612aa957600080fd5b600061368885614924565b845482908690600019810190811061369c57fe5b9060005260206000209060020201600001541115613701576040805162461bcd60e51b815260206004820152601d60248201527f45786368616e676552617465547261636b65722f746f6f2d6561726c79000000604482015290519081900360640190fd5b613709614f25565b604051806020016040528073__FixedPoint____________________________63a94b733488886040518363ffffffff1660e01b8152600401808381526020018281526020019250505060206040518083038186803b15801561376b57600080fd5b505af415801561377f573d6000803e3d6000fd5b505050506040513d602081101561379557600080fd5b50519052604080518082019091528481526020818101838152895460018181018c5560008c81529390932093516002909102909301928355515191015551915050949350505050565b60006001600160a01b0383166138255760405162461bcd60e51b81526004018080602001828103825260248152602001806150756024913960400191505060405180910390fd5b6001600160a01b03841661386a5760405162461bcd60e51b81526004018080602001828103825260268152602001806150ee6026913960400191505060405180910390fd5b6000613874612f53565b90506138a2818686866040518060200160405280600081525060405180602001604052806000815250614977565b6138ce818686866040518060200160405280600081525060405180602001604052806000815250614bbe565b6139288582613923866040518060600160405280602981526020016150c5602991396001600160a01b03808c166000908152603b60209081526040808320938b1683529290522054919063ffffffff61479a16565b612f57565b6139568186868660405180602001604052806000815250604051806020016040528060008152506000614326565b506001949350505050565b80600061396d84611875565b9050818110156139b9576139a28585836040518060200160405280600081525060405180602001604052806000815250613a2b565b6139b2828263ffffffff61301416565b91506139eb565b6139e48585846040518060200160405280600081525060405180602001604052806000815250613a2b565b5050611a8b565b60006139fe60a48463ffffffff612a4816565b90506117178686836040518060200160405280600081525060405180602001604052806000815250613f98565b613a348461292c565b613a4560a18463ffffffff614dd816565b6001600160a01b038416600090815260a360205260409020613a6d908463ffffffff614dd816565b60a554604080516303a83ff160e21b81526004810186905290516001600160a01b0390921691630ea0ffc49160248082019260009290919082900301818387803b158015613aba57600080fd5b505af1158015613ace573d6000803e3d6000fd5b5050505060a560009054906101000a90046001600160a01b03166001600160a01b031663fc0c546a6040518163ffffffff1660e01b815260040160206040518083038186803b158015613b2057600080fd5b505afa158015613b34573d6000803e3d6000fd5b505050506040513d6020811015613b4a57600080fd5b50516040805163a9059cbb60e01b81526001600160a01b038781166004830152602482018790529151919092169163a9059cbb9160448083019260209291908290030181600087803b158015613b9f57600080fd5b505af1158015613bb3573d6000803e3d6000fd5b505050506040513d6020811015613bc957600080fd5b5050604080518481526060602082810182815286519284019290925285516001600160a01b03808a1695908b16947f91f63202ac41673c1d492d91ee9bf7a27334ccbcf5bcfbeb5755c67a8d12a838948a948a948a9484019160808501919087019080838360005b83811015613c49578181015183820152602001613c31565b50505050905090810190601f168015613c765780820380516001836020036101000a031916815260200191505b50838103825284518152845160209182019186019080838360005b83811015613ca9578181015183820152602001613c91565b50505050905090810190601f168015613cd65780820380516001836020036101000a031916815260200191505b509550505050505060405180910390a35050505050565b613cfe613cf8612f53565b86612624565b613d395760405162461bcd60e51b815260040180806020018281038252602c815260200180615099602c913960400191505060405180910390fd5b611bb9613d44612f53565b8686868686600161425f565b6001600160a01b031660009081526033602052604090205490565b6000613d7682614924565b815482906000198101908110613d8857fe5b90600052602060002090600202016001019050919050565b303b1590565b611a8b613db1612f53565b613db9612f53565b85858560405180602001604052806000815250600161425f565b60006001600160a01b038316613e1a5760405162461bcd60e51b81526004018080602001828103825260248152602001806150756024913960400191505060405180910390fd5b6000613e24612f53565b9050613e52818286866040518060200160405280600081525060405180602001604052806000815250614977565b613e7e818286866040518060200160405280600081525060405180602001604052806000815250614bbe565b6114cc8182868660405180602001604052806000815250604051806020016040528060008152506000614326565b60008111613f01576040805162461bcd60e51b815260206004820152601c60248201527f45786368616e676552617465547261636b65722f6e6f6e2d7a65726f00000000604482015290519081900360640190fd5b815415613f55576040805162461bcd60e51b815260206004820152601d60248201527f45786368616e676552617465547261636b65722f696e69742d70726576000000604482015290519081900360640190fd5b6040805180820182526000808252825160208181019094529384528282019384528454600181810187559582529290209051600290920201908155905151910155565b613fa18461292c565b6000613fb460a48563ffffffff61361c16565b60a5546040805163435edacd60e01b81526004810184905290519293506001600160a01b039091169163435edacd916024808201926020929091908290030181600087803b15801561400557600080fd5b505af1158015614019573d6000803e3d6000fd5b505050506040513d602081101561402f57600080fd5b505060a55460408051637e062a3560e11b815290516001600160a01b039092169163fc0c546a91600480820192602092909190829003018186803b15801561407657600080fd5b505afa15801561408a573d6000803e3d6000fd5b505050506040513d60208110156140a057600080fd5b50516040805163a9059cbb60e01b81526001600160a01b038881166004830152602482018590529151919092169163a9059cbb9160448083019260209291908290030181600087803b1580156140f557600080fd5b505af1158015614109573d6000803e3d6000fd5b505050506040513d602081101561411f57600080fd5b5050604080518581526020808201849052608092820183815286519383019390935285516001600160a01b0389811694908b16937f21dc098de022934ad94336e1c632e1e7ee32d05acf4b6232ec5d27747b9aed81938a9388938b938b939092606084019160a08501919087019080838360008315612ea8578181015183820152602001612e90565b6000806141fc60a560009054906101000a90046001600160a01b03166001600160a01b0316637f77fc4d6040518163ffffffff1660e01b815260040160206040518083038186803b15801561163257600080fd5b9092509050600061421560a4848463ffffffff61307516565b90508015611a8b5761422760a1614252565b611a8b3030836040518060200160405280600081525060405180602001604052806000815250612adc565b6000600182018190559055565b6001600160a01b0386166142a45760405162461bcd60e51b8152600401808060200182810382526022815260200180614f976022913960400191505060405180910390fd5b6001600160a01b0385166142ff576040805162461bcd60e51b815260206004820181905260248201527f4552433737373a2073656e6420746f20746865207a65726f2061646472657373604482015290519081900360640190fd5b61430d878787878787614977565b61431b878787878787614bbe565b612088878787878787875b6040805163555ddc6560e11b81526001600160a01b03871660048201527fb281fc8c12954d22544db45de3159a39272895b169a852b314f9cc762e44c53b60248201529051600091731820a4b7618bde71dce8cdc73aab6c95905fad249163aabbb8ca91604480820192602092909190829003018186803b1580156143aa57600080fd5b505afa1580156143be573d6000803e3d6000fd5b505050506040513d60208110156143d457600080fd5b505190506001600160a01b0381161561131357806001600160a01b03166223de298989898989896040518763ffffffff1660e01b815260040180876001600160a01b03166001600160a01b03168152602001866001600160a01b03166001600160a01b03168152602001856001600160a01b03166001600160a01b031681526020018481526020018060200180602001838103835285818151815260200191508051906020019080838360005b83811015614499578181015183820152602001614481565b50505050905090810190601f1680156144c65780820380516001836020036101000a031916815260200191505b50838103825284518152845160209182019186019080838360005b838110156144f95781810151838201526020016144e1565b50505050905090810190601f1680156145265780820380516001836020036101000a031916815260200191505b5098505050505050505050600060405180830381600087803b15801561454b57600080fd5b505af115801561455f573d6000803e3d6000fd5b505050505050505050505050565b6001600160a01b0384166145b25760405162461bcd60e51b8152600401808060200182810382526022815260200180614fe06022913960400191505060405180910390fd5b6145c185856000868686614977565b61460483604051806060016040528060238152602001615114602391396001600160a01b038716600090815260336020526040902054919063ffffffff61479a16565b6001600160a01b038516600090815260336020526040902055603454614630908463ffffffff61301416565b603481905550836001600160a01b0316856001600160a01b03167fa78a9be3a7b862d26933ad85fb11d80ef66b8f972d7cbba06621d583943a4098858585604051808481526020018060200180602001838103835285818151815260200191508051906020019080838360005b838110156146b557818101518382015260200161469d565b50505050905090810190601f1680156146e25780820380516001836020036101000a031916815260200191505b50838103825284518152845160209182019186019080838360005b838110156147155781810151838201526020016146fd565b50505050905090810190601f1680156147425780820380516001836020036101000a031916815260200191505b509550505050505060405180910390a36040805184815290516000916001600160a01b038716917fddf252ad1be2c89b69c2b068fc378daa952ba7f163c4a11628f55a4df523b3ef9181900360200190a35050505050565b600081848411156148295760405162461bcd60e51b81526004018080602001828103825283818151815260200191508051906020019080838360005b838110156147ee5781810151838201526020016147d6565b50505050905090810190601f16801561481b5780820380516001836020036101000a031916815260200191505b509250505060405180910390fd5b505050900390565b600061483c83614924565b82546000905b6001810382101561488f57845460028383030483019086908290811061486457fe5b90600052602060002090600202016000015485101561488557809150614889565b8092505b50614842565b60001901949350505050565b82600101548110156148f4576040805162461bcd60e51b815260206004820152601a60248201527f5363686564756c656442616c616e63652f6261636b7761726473000000000000604482015290519081900360640190fd5b8083600101541415614919578254614912908363ffffffff61313516565b8355611a8b565b908255600190910155565b8054611d3f576040805162461bcd60e51b815260206004820152601c60248201527f45786368616e676552617465547261636b65722f6e6f742d696e697400000000604482015290519081900360640190fd5b6040805163555ddc6560e11b81526001600160a01b03871660048201527f29ddb589b1fb5fc7cf394961c1adf5f8c6454761adf795e67fe149f658abe89560248201529051600091731820a4b7618bde71dce8cdc73aab6c95905fad249163aabbb8ca91604480820192602092909190829003018186803b1580156149fb57600080fd5b505afa158015614a0f573d6000803e3d6000fd5b505050506040513d6020811015614a2557600080fd5b505190506001600160a01b0381161561208857806001600160a01b03166375ab97828888888888886040518763ffffffff1660e01b815260040180876001600160a01b03166001600160a01b03168152602001866001600160a01b03166001600160a01b03168152602001856001600160a01b03166001600160a01b031681526020018481526020018060200180602001838103835285818151815260200191508051906020019080838360005b83811015614aeb578181015183820152602001614ad3565b50505050905090810190601f168015614b185780820380516001836020036101000a031916815260200191505b50838103825284518152845160209182019186019080838360005b83811015614b4b578181015183820152602001614b33565b50505050905090810190601f168015614b785780820380516001836020036101000a031916815260200191505b5098505050505050505050600060405180830381600087803b158015614b9d57600080fd5b505af1158015614bb1573d6000803e3d6000fd5b5050505050505050505050565b614c0183604051806060016040528060278152602001614fb9602791396001600160a01b038816600090815260336020526040902054919063ffffffff61479a16565b6001600160a01b038087166000908152603360205260408082209390935590861681522054614c36908463ffffffff61313516565b60336000866001600160a01b03166001600160a01b0316815260200190815260200160002081905550836001600160a01b0316856001600160a01b0316876001600160a01b03167f06b541ddaa720db2b10a4d0cdac39b8d360425fc073085fac19bc82614677987868686604051808481526020018060200180602001838103835285818151815260200191508051906020019080838360005b83811015614ce8578181015183820152602001614cd0565b50505050905090810190601f168015614d155780820380516001836020036101000a031916815260200191505b50838103825284518152845160209182019186019080838360005b83811015614d48578181015183820152602001614d30565b50505050905090810190601f168015614d755780820380516001836020036101000a031916815260200191505b509550505050505060405180910390a4836001600160a01b0316856001600160a01b03167fddf252ad1be2c89b69c2b068fc378daa952ba7f163c4a11628f55a4df523b3ef856040518082815260200191505060405180910390a3505050505050565b8154811115614e2e576040805162461bcd60e51b815260206004820152601760248201527f5363686564756c656442616c616e63652f696e73756666000000000000000000604482015290519081900360640190fd5b8154614e40908263ffffffff61301416565b90915550565b828054600181600116156101000203166002900490600052602060002090601f016020900481019282601f10614e8757805160ff1916838001178555614eb4565b82800160010185558215614eb4579182015b82811115614eb4578251825591602001919060010190614e99565b50614ec0929150614f38565b5090565b828054828255906000526020600020908101928215614f19579160200282015b82811115614f1957825182546001600160a01b0319166001600160a01b03909116178255602090920191600190910190614ee4565b50614ec0929150614f52565b6040518060200160405280600081525090565b61142491905b80821115614ec05760008155600101614f3e565b61142491905b80821115614ec05780546001600160a01b0319168155600101614f5856fe5265656e7472616e637947756172643a207265656e7472616e742063616c6c004552433737373a2073656e642066726f6d20746865207a65726f20616464726573734552433737373a207472616e7366657220616d6f756e7420657863656564732062616c616e63654552433737373a206275726e2066726f6d20746865207a65726f20616464726573734552433737373a20617574686f72697a696e672073656c66206173206f70657261746f724552433737373a207265766f6b696e672073656c66206173206f70657261746f72436f6e747261637420696e7374616e63652068617320616c7265616479206265656e20696e697469616c697a65644552433737373a207472616e7366657220746f20746865207a65726f20616464726573734552433737373a2063616c6c6572206973206e6f7420616e206f70657261746f7220666f7220686f6c6465724552433737373a207472616e7366657220616d6f756e74206578636565647320616c6c6f77616e63654552433737373a207472616e736665722066726f6d20746865207a65726f20616464726573734552433737373a206275726e20616d6f756e7420657863656564732062616c616e63654552433737373a20617070726f766520746f20746865207a65726f2061646472657373a265627a7a7231582004495fd9fd6d61b9b0a24f818767e41b12edb730a9c47369a89b92f0e1e1b36d64736f6c634300050c0032",
  "source": "/**\nCopyright 2020 PoolTogether Inc.\n\nThis file is part of PoolTogether.\n\nPoolTogether is free software: you can redistribute it and/or modify\nit under the terms of the GNU General Public License as published by\nthe Free Software Foundation under version 3 of the License.\n\nPoolTogether is distributed in the hope that it will be useful,\nbut WITHOUT ANY WARRANTY; without even the implied warranty of\nMERCHANTABILITY or FITNESS FOR A PARTICULAR PURPOSE.  See the\nGNU General Public License for more details.\n\nYou should have received a copy of the GNU General Public License\nalong with PoolTogether.  If not, see <https://www.gnu.org/licenses/>.\n*/\n\npragma solidity 0.5.12;\n\nimport \"@openzeppelin/upgrades/contracts/Initializable.sol\";\nimport \"@openzeppelin/contracts-ethereum-package/contracts/introspection/IERC1820Registry.sol\";\nimport \"@openzeppelin/contracts-ethereum-package/contracts/token/ERC777/IERC777Recipient.sol\";\nimport \"@openzeppelin/contracts-ethereum-package/contracts/token/ERC777/ERC777.sol\";\nimport \"@openzeppelin/contracts-ethereum-package/contracts/utils/ReentrancyGuard.sol\";\nimport \"@kleros/kleros/contracts/data-structures/SortitionSumTreeFactory.sol\";\nimport \"@pooltogether/pooltogether-contracts/contracts/UniformRandomNumber.sol\";\nimport \"@pooltogether/pooltogether-contracts/contracts/MCDAwarePool.sol\";\nimport \"@pooltogether/pooltogether-contracts/contracts/IRewardListener.sol\";\n\nimport \"./ScheduledBalance.sol\";\nimport \"./ExchangeRateTracker.sol\";\n\n/**\n * @title PoolTogether Pod\n * @author Brendan Asselstine\n * @notice Allows users to own shares in pooled tickets for a PoolTogether Pool\n *\n * Designed to be bound to the PoolTogether Pool that support RewardListeners.\n *\n * A RewardListener is a contract that is registered to be the reward listener for an address using the ERC 1820 registry.\n *\n * When the Pool picks a winner, the Pool will look for a registered RewardListener.  If one exists, it calls `rewarded`\n * on the listener with a stipend of 200000 gas.\n *\n * In this way the Pod is able to track historic exchange rates.\n */\ncontract Pod is ERC777, ReentrancyGuard, IERC777Recipient, IRewardListener {\n  using ScheduledBalance for ScheduledBalance.State;\n  using ExchangeRateTracker for ExchangeRateTracker.State;\n\n  /// @notice The initial exchange rate for shares.  Starts high as the shares perpetually deflate.\n  uint256 internal constant BASE_EXCHANGE_RATE_MANTISSA = 1e24;\n\n  /// @notice keccak256(\"PoolTogetherRewardListener\")\n  bytes32 constant internal REWARD_LISTENER_INTERFACE_HASH =\n      0x68f03b0b1a978ee238a70b362091d993343460bc1a2830ab3f708936d9f564a4;\n\n  /// @notice keccak256(\"ERC777TokensRecipient\")\n  bytes32 constant internal TOKENS_RECIPIENT_INTERFACE_HASH =\n      0xb281fc8c12954d22544db45de3159a39272895b169a852b314f9cc762e44c53b;\n\n  /// @notice A reference to interact with the ERC1820 registry\n  IERC1820Registry constant internal ERC1820_REGISTRY = IERC1820Registry(0x1820a4B7618BdE71Dce8cdc73aAB6C95905faD24);\n\n  /**\n   * @notice Event emitted when a user withdraws their pending deposit\n   * @param operator The operator who kicked off the transaction\n   * @param from The account that is being debited\n   * @param collateral The amount of collateral being withdrawn\n   * @param data Data the debited account included in the tx\n   * @param operatorData Data the operator included in the tx\n   */\n  event PendingDepositWithdrawn(address indexed operator, address indexed from, uint256 collateral, bytes data, bytes operatorData);\n\n  /**\n   * @notice Event emitted when a user or operator redeems tokens into the backing collateral\n   * @param operator The operator who kicked off the transaction\n   * @param from The account that is being debited\n   * @param amount The amount of Pod shares redeemed.\n   * @param collateral The amount of collateral that was returned\n   * @param data Data the debited account included in the tx\n   * @param operatorData Data the operator included in the tx\n   */\n  event Redeemed(address indexed operator, address indexed from, uint256 amount, uint256 collateral, bytes data, bytes operatorData);\n\n  /**\n   * @notice Event emitted when a user or operator redeems tokens into Pool tickets\n   * @param operator The operator who kicked off the transaction\n   * @param from The account that is being debited\n   * @param amount The amount of Pod shares redeemed.\n   * @param collateral The amount of Pool tickets redeemed.\n   * @param data Data the debited account included in the tx\n   * @param operatorData Data the operator included in the tx\n   */\n  event RedeemedToPool(address indexed operator, address indexed from, uint256 amount, uint256 collateral, bytes data, bytes operatorData);\n\n  /**\n   * @notice Event emitted when the collateralization of the Pod shares changes.\n   * @param timestamp The timestamp at which the collateralization changed\n   * @param tokens The new token supply\n   * @param collateral The new collateral amount\n   * @param mantissa The new exchange rate mantissa\n   */\n  event CollateralizationChanged(uint256 indexed timestamp, uint256 tokens, uint256 collateral, uint256 mantissa);\n\n  /**\n   * @notice Event emitted when a user or operator deposits collateral for Pod shares\n   * @param operator The operator who kicked off the transaction\n   * @param from The account that will be credited with Pod shares\n   * @param collateral The amount of collateral deposited\n   * @param drawId The open draw id in which the account deposited\n   * @param data Data the credited account included in the tx\n   * @param operatorData Data the operator included in the tx\n   */\n  event Deposited(address indexed operator, address indexed from, uint256 collateral, uint256 drawId, bytes data, bytes operatorData);\n\n  /// @notice Tracks the consolidated and unconsolidated supply of tokens\n  ScheduledBalance.State internal scheduledSupply;\n\n  /// @notice Tracks the consolidated and unconsolidated balances of tokens per user\n  mapping(address => ScheduledBalance.State) internal scheduledBalances;\n\n  /// @notice Tracks the historic exchange rate\n  ExchangeRateTracker.State internal exchangeRateTracker;\n\n  /// @notice The PoolTogether Pool that this Pod is bound to\n  MCDAwarePool public pool;\n\n  /**\n   * @notice Initializes the Pod.\n   * @param _pool The Pool to bind this Pod to.\n   */\n  function initialize(\n    MCDAwarePool _pool\n  ) public initializer {\n    require(address(_pool) != address(0), \"Pod/pool-def\");\n    exchangeRateTracker.initialize(BASE_EXCHANGE_RATE_MANTISSA);\n    pool = _pool;\n    ERC1820_REGISTRY.setInterfaceImplementer(address(this), TOKENS_RECIPIENT_INTERFACE_HASH, address(this));\n    ERC1820_REGISTRY.setInterfaceImplementer(address(this), REWARD_LISTENER_INTERFACE_HASH, address(this));\n  }\n\n  /**\n   * @notice Deposits on behalf of a user by an operator.  The deposit will become Pod shares upon the next Pool reward.\n   * @param user The user on whose behalf to deposit\n   * @param amount The amount of collateral to deposit\n   * @param data Included user data\n   * @param operatorData Included operator data\n   */\n  function operatorDeposit(address user, uint256 amount, bytes calldata data, bytes calldata operatorData) external {\n    _deposit(msg.sender, user, amount, data, operatorData);\n  }\n\n  /**\n   * @notice Deposits into the Pod. The deposit will become Pod shares upon the next Pool reward.\n   * @param amount The amount of collateral to deposit\n   * @param data Included user data\n   */\n  function deposit(uint256 amount, bytes calldata data) external {\n    _deposit(msg.sender, msg.sender, amount, data, \"\");\n  }\n\n  /**\n   * @notice Deposits on behalf of a user by an operator.  The operator may also be the user. The deposit will become Pod shares upon the next Pool reward.\n   *\n   * @dev If there is an existing deposit for the open draw, the deposits will be combined.  Otherwise, if there is an existing deposit for the\n   * committed draw then those tokens will be transferred to the user.  We can do so because *we always have the exchange rate for the committed draw*\n   *\n   * @param operator The operator who kicked of the deposit\n   * @param from The user on whose behalf to deposit\n   * @param amount The amount of collateral to deposit\n   * @param data Included user data\n   * @param operatorData Included operator data\n   */\n  function _deposit(\n    address operator,\n    address from,\n    uint256 amount,\n    bytes memory data,\n    bytes memory operatorData\n  ) internal nonReentrant {\n    consolidateBalanceOf(from);\n    pool.token().transferFrom(from, address(this), amount);\n    pool.token().approve(address(pool), amount);\n    pool.depositPool(amount);\n    uint256 openDrawId = pool.currentOpenDrawId();\n    scheduledSupply.deposit(amount, openDrawId);\n    scheduledBalances[from].deposit(amount, openDrawId);\n    emit Deposited(operator, from, amount, openDrawId, data, operatorData);\n  }\n\n  /**\n   * @notice IERC777Recipient callback to handle direct Pool token transfers. When users transfer their Pool tickets to this contract they will be instantly converted into Pod shares.\n   * @param from The user whose tickets are being transferred\n   * @param amount The number of tickets being transferred\n   */\n  function tokensReceived(\n    address,\n    address from,\n    address, // to address can't be anything but us because we don't implement ERC1820ImplementerInterface\n    uint256 amount,\n    bytes calldata,\n    bytes calldata\n  ) external {\n    // if this is a transfer of pool tickets\n    if (msg.sender == address(pool.poolToken())) {\n      // convert to shares\n      consolidateBalanceOf(from);\n      uint256 tokens = exchangeRateTracker.collateralToTokenValue(amount);\n      _mint(address(this), from, tokens, \"\", \"\");\n    } else {\n      // The only other allowed token is itself and the asset\n      require(msg.sender == address(this) || msg.sender == address(pool.token()), \"Pod/unknown-token\");\n    }\n  }\n\n  /**\n   * @notice Returns the collateral value of the given user's tokens. If the user does not have any tokens, this will be zero.  Pending deposits are not included.\n   * @param user The user whose balance should be checked\n   * @return The collateral value of the tokens held by the user.\n   */\n  function balanceOfUnderlying(address user) public view returns (uint256) {\n    return exchangeRateTracker.tokenToCollateralValue(balanceOf(user));\n  }\n\n  /**\n   * @notice Returns the amount of collateral a user has deposited that is pending conversion to tokens.\n   * @param user The user whose pending collateral balance should be returned.\n   * @return The amount of collateral the user has deposited that has not converted to tokens.\n   */\n  function pendingDeposit(address user) public view returns (uint256) {\n    // Balance may not have been consolidated, so make sure the committed balance is removed\n    uint256 committedBalance = scheduledBalances[user].balanceAt(pool.currentCommittedDrawId());\n    return scheduledBalances[user].balanceAt(pool.currentOpenDrawId()).sub(committedBalance);\n  }\n\n  function totalPendingDeposits() public view returns (uint256) {\n    uint256 committedBalance = scheduledSupply.balanceAt(pool.currentCommittedDrawId());\n    return scheduledSupply.balanceAt(pool.currentOpenDrawId()).sub(committedBalance);\n  }\n\n  /**\n   * @notice Allows an operator to withdraw a user's pending deposit on their behalf\n   * @param from The user on whose behalf to withdraw\n   * @param amount The amount to withdraw\n   * @param data Data included by the user\n   * @param operatorData Data included by the operator\n   */\n  function operatorWithdrawPendingDeposit(\n    address from,\n    uint256 amount,\n    bytes calldata data,\n    bytes calldata operatorData\n  ) external {\n    require(isOperatorFor(msg.sender, from), \"Pod/not-op\");\n    _withdrawPendingDeposit(msg.sender, from, amount, data, operatorData);\n  }\n\n  function withdrawAndRedeemCollateral(uint256 collateral) external nonReentrant {\n    _withdrawAndRedeemCollateral(msg.sender, msg.sender, collateral);\n  }\n\n  function operatorWithdrawAndRedeemCollateral(address from, uint256 collateral) external nonReentrant {\n    require(isOperatorFor(msg.sender, from), \"Pod/not-op\");\n    _withdrawAndRedeemCollateral(msg.sender, from, collateral);\n  }\n\n  function _withdrawAndRedeemCollateral(address operator, address from, uint256 amount) internal {\n    uint256 remainingCollateral = amount;\n    uint256 pending = pendingDeposit(from);\n    if (pending < remainingCollateral) {\n      _withdrawPendingDeposit(operator, from, pending, \"\", \"\");\n      remainingCollateral = remainingCollateral.sub(pending);\n    } else {\n      _withdrawPendingDeposit(operator, from, remainingCollateral, \"\", \"\");\n      return;\n    }\n\n    uint256 tokens = exchangeRateTracker.collateralToTokenValue(remainingCollateral);\n    _redeem(operator, from, tokens, \"\", \"\");\n  }\n\n  /**\n   * @notice Allows a user to withdraw their pending deposit\n   * @param amount The amount the user wishes to withdraw\n   * @param data Data included by the user\n   */\n  function withdrawPendingDeposit(\n    uint256 amount,\n    bytes calldata data\n  ) external {\n    _withdrawPendingDeposit(msg.sender, msg.sender, amount, data, \"\");\n  }\n\n  /**\n   * @notice Withdraw from a user's pending deposit\n   * @param operator The operator conducting the withdrawal\n   * @param from The user whose deposit will be withdrawn\n   * @param amount The amount to withdraw\n   * @param data Data included by the user\n   * @param operatorData Data included by the operator\n   */\n  function _withdrawPendingDeposit(\n    address operator,\n    address from,\n    uint256 amount,\n    bytes memory data,\n    bytes memory operatorData\n  ) internal {\n    consolidateBalanceOf(from);\n    scheduledSupply.withdraw(amount);\n    scheduledBalances[from].withdraw(amount);\n    pool.withdrawOpenDeposit(amount);\n    pool.token().transfer(from, amount);\n\n    emit PendingDepositWithdrawn(operator, from, amount, data, operatorData);\n  }\n\n  // =============================================== //\n  // ============== ERC777 Overrides =============== //\n  // =============================================== //\n\n  /**\n    * @dev Moves `amount` tokens from the caller's account to `recipient`.\n    *\n    * If send or receive hooks are registered for the caller and `recipient`,\n    * the corresponding functions will be called with `data` and empty\n    * `operatorData`. See {IERC777Sender} and {IERC777Recipient}.\n    *\n    * Emits a {Sent} event.\n    *\n    * Requirements\n    *\n    * - the caller must have at least `amount` tokens.\n    * - `recipient` cannot be the zero address.\n    * - if `recipient` is a contract, it must implement the {IERC777Recipient}\n    * interface.\n    */\n  function send(address recipient, uint256 amount, bytes memory data) public {\n    consolidateBalanceOf(msg.sender);\n    super.send(recipient, amount, data);\n  }\n\n  /**\n    * @dev Moves `amount` tokens from `sender` to `recipient`. The caller must\n    * be an operator of `sender`.\n    *\n    * If send or receive hooks are registered for `sender` and `recipient`,\n    * the corresponding functions will be called with `data` and\n    * `operatorData`. See {IERC777Sender} and {IERC777Recipient}.\n    *\n    * Emits a {Sent} event.\n    *\n    * Requirements\n    *\n    * - `sender` cannot be the zero address.\n    * - `sender` must have at least `amount` tokens.\n    * - the caller must be an operator for `sender`.\n    * - `recipient` cannot be the zero address.\n    * - if `recipient` is a contract, it must implement the {IERC777Recipient}\n    * interface.\n    */\n  function operatorSend(\n      address sender,\n      address recipient,\n      uint256 amount,\n      bytes memory data,\n      bytes memory operatorData\n  ) public {\n    consolidateBalanceOf(sender);\n    super.operatorSend(sender, recipient, amount, data, operatorData);\n  }\n\n  // ============= End ERC777 Overrides ============ //\n\n  // =============================================== //\n  // =============== ERC20 Overrides =============== //\n  // =============================================== //\n\n  /**\n   * @notice Returns the number of tokens held by the given user.  Does not include pending deposits.\n   * @param tokenHolder The user whose balance should be checked\n   * @return The users total balance of tokens.\n   */\n  function balanceOf(address tokenHolder) public view returns (uint256) {\n    (uint256 balance, uint256 drawId) = scheduledBalances[tokenHolder].balanceInfoAt(pool.currentCommittedDrawId());\n    return super.balanceOf(tokenHolder).add(\n      exchangeRateTracker.collateralToTokenValueAt(\n        balance,\n        drawId\n      )\n    );\n  }\n\n  /**\n   * @notice Returns the total supply of tokens.  Does not included any pending deposits.\n   * @return The total supply of tokens.\n   */\n  function totalSupply() public view returns (uint256) {\n    (uint256 balance, uint256 drawId) = scheduledSupply.balanceInfoAt(pool.currentCommittedDrawId());\n    return super.totalSupply().add(\n      exchangeRateTracker.collateralToTokenValueAt(\n        balance,\n        drawId\n      )\n    );\n  }\n\n  /**\n    * @dev Moves `amount` tokens from the caller's account to `recipient`.\n    *\n    * Returns a boolean value indicating whether the operation succeeded.\n    *\n    * Emits a {Transfer} event.\n    */\n  function transfer(address recipient, uint256 amount) public returns (bool) {\n    consolidateBalanceOf(msg.sender);\n    return super.transfer(recipient, amount);\n  }\n\n  /**\n    * @dev Moves `amount` tokens from `sender` to `recipient` using the\n    * allowance mechanism. `amount` is then deducted from the caller's\n    * allowance.\n    *\n    * Returns a boolean value indicating whether the operation succeeded.\n    *\n    * Emits a {Transfer} event.\n    */\n  function transferFrom(address sender, address recipient, uint256 amount) public returns (bool) {\n    consolidateBalanceOf(sender);\n    return super.transferFrom(sender, recipient, amount);\n  }\n\n  // ============= End ERC20 Overrides ============= //\n\n  /**\n    * @dev See {IERC777-operatorBurn}.\n    *\n    * This contract does not support burning.  Redeem must be called.\n    */\n  function operatorBurn(address, uint256, bytes memory, bytes memory) public {\n    revert(\"Pod/no-op\");\n  }\n\n  /**\n    * @dev See {IERC777-burn}.\n    *\n    * This contract does not support burning.  Redeem must be called.\n    */\n  function burn(uint256, bytes memory) public {\n    revert(\"Pod/no-op\");\n  }\n\n  /**\n   * @dev PoolTogetherRewardListener callback that is triggered by the Pool when this Pod wins.\n   * @param winnings The amount of collateral won in the prize\n   * @param drawId The prize id that was won\n   */\n  function rewarded(address, uint256 winnings, uint256 drawId) external nonReentrant {\n    require(msg.sender == address(pool), \"Pod/only-pool\");\n    uint256 tokens = totalSupply();\n    uint256 collateral = exchangeRateTracker.tokenToCollateralValue(tokens).add(winnings);\n    // exchange rate will apply to committed tokens\n    uint256 mantissa = exchangeRateTracker.collateralizationChanged(tokens, collateral, drawId.add(1));\n    emit CollateralizationChanged(drawId, tokens, collateral, mantissa);\n  }\n\n  /**\n   * @notice Returns the mantissa of the current exchange rate.\n   * @return The current exchange rate mantissa.\n   */\n  function currentExchangeRateMantissa() external view returns (uint256) {\n    return exchangeRateTracker.currentExchangeRate().mantissa;\n  }\n\n  /**\n   * @notice Allows an operator to redeem tokens for collateral on behalf of a user.\n   * @param account The user who is redeeming tokens\n   * @param amount The amount of tokens to convert to collateral\n   * @param data User data included with the tx\n   * @param operatorData Operator data included with the tx\n   */\n  function operatorRedeem(address account, uint256 amount, bytes calldata data, bytes calldata operatorData) external nonReentrant {\n    require(isOperatorFor(msg.sender, account), \"Pod/not-op\");\n    _redeem(msg.sender, account, amount, data, operatorData);\n  }\n\n  /**\n   * @notice Allows a user to redeem tokens for collateral.\n   * @param amount The amount of tokens to convert to collateral\n   * @param data User data included with the tx\n   */\n  function redeem(uint256 amount, bytes calldata data) external nonReentrant {\n    _redeem(msg.sender, msg.sender, amount, data, \"\");\n  }\n\n  /**\n    * @notice Redeems tokens for the underlying asset.\n    * @param operator address operator requesting the operation\n    * @param from address token holder address\n    * @param amount uint256 amount of tokens to redeem\n    * @param data bytes extra information provided by the token holder\n    * @param operatorData bytes extra information provided by the operator (if any)\n    */\n  function _redeem(\n      address operator,\n      address from,\n      uint256 amount,\n      bytes memory data,\n      bytes memory operatorData\n  )\n      internal\n  {\n      consolidateBalanceOf(from);\n      uint256 collateral = exchangeRateTracker.tokenToCollateralValue(amount);\n      pool.withdrawCommittedDeposit(collateral);\n      pool.token().transfer(from, collateral);\n      emit Redeemed(operator, from, amount, collateral, data, operatorData);\n      _burn(operator, from, amount, data, operatorData);\n  }\n\n  /**\n   * @notice Allows an operator to redeem tokens for Pool tickets on behalf of a user.\n   * @param account The user who is redeeming tokens\n   * @param amount The amount of tokens to convert to Pool tickets\n   * @param data User data included with the tx\n   * @param operatorData Operator data included with the tx\n   */\n  function operatorRedeemToPool(address account, uint256 amount, bytes calldata data, bytes calldata operatorData) external nonReentrant {\n    require(isOperatorFor(msg.sender, account), \"Pod/not-op\");\n    _redeemToPool(msg.sender, account, amount, data, operatorData);\n  }\n\n  /**\n   * @notice Allows a user to redeem tokens for Pool tickets\n   * @param amount The amount of tokens to convert to Pool tickets\n   * @param data User data included with the tx\n   */\n  function redeemToPool(uint256 amount, bytes calldata data) external nonReentrant {\n    _redeemToPool(msg.sender, msg.sender, amount, data, \"\");\n  }\n\n  /**\n   * @notice Allows an operator to redeem tokens for Pool tickets on behalf of a user.\n   * @param operator The operator who is running the tx\n   * @param from The user who is redeeming tokens\n   * @param amount The amount of tokens to convert to Pool tickets\n   * @param data User data included with the tx\n   * @param operatorData Operator data included with the tx\n   */\n  function _redeemToPool(\n    address operator,\n    address from,\n    uint256 amount,\n    bytes memory data,\n    bytes memory operatorData\n  ) internal {\n    consolidateBalanceOf(from);\n    uint256 collateral = exchangeRateTracker.tokenToCollateralValue(amount);\n    pool.poolToken().transfer(from, collateral);\n    emit RedeemedToPool(operator, from, amount, collateral, data, operatorData);\n    _burn(operator, from, amount, data, operatorData);\n  }\n\n  function tokenToCollateralValue(uint256 tokens) external view returns (uint256) {\n    return exchangeRateTracker.tokenToCollateralValue(tokens);\n  }\n\n  function collateralToTokenValue(uint256 collateral) external view returns (uint256) {\n    return exchangeRateTracker.collateralToTokenValue(collateral);\n  }\n\n  /**\n   * @dev Mints tokens to the Pod using any consolidated supply, then zeroes out the supply.\n   */\n  function consolidateSupply() internal {\n    (uint256 balance, uint256 drawId) = scheduledSupply.balanceInfoAt(pool.currentCommittedDrawId());\n    uint256 tokens = exchangeRateTracker.collateralToTokenValueAt(balance, drawId);\n    if (tokens > 0) {\n      scheduledSupply.withdrawAll();\n      _mint(address(this), address(this), tokens, \"\", \"\");\n    }\n  }\n\n  /**\n   * @notice Ensures any pending shares are minted to the user.\n   * @dev First calls `consolidateSupply()`, then transfers tokens from the Pod to the user based\n   * on the user's consolidated supply.  Finally, it zeroes out the user's consolidated supply.\n   *\n   * @param user The user whose balance should be consolidated.\n   */\n  function consolidateBalanceOf(address user) internal {\n    consolidateSupply();\n    (uint256 balance, uint256 drawId) = scheduledBalances[user].balanceInfoAt(pool.currentCommittedDrawId());\n    uint256 tokens = exchangeRateTracker.collateralToTokenValueAt(balance, drawId);\n    if (tokens > 0) {\n      scheduledBalances[user].withdrawAll();\n      _send(address(this), address(this), user, tokens, \"\", \"\", true);\n    }\n  }\n\n  /**\n     * @dev Call to.tokensReceived() if the interface is registered. Reverts if the recipient is a contract but\n     * tokensReceived() was not registered for the recipient.\n     *\n     * NOTE: We are relaxing the constraints such that if the receiver is a contract it does *not* need to\n     * implement ERC777TokensRecipient\n     *\n     * @param operator address operator requesting the transfer\n     * @param from address token holder address\n     * @param to address recipient address\n     * @param amount uint256 amount of tokens to transfer\n     * @param userData bytes extra information provided by the token holder (if any)\n     * @param operatorData bytes extra information provided by the operator (if any)\n     */\n    function _callTokensReceived(\n        address operator,\n        address from,\n        address to,\n        uint256 amount,\n        bytes memory userData,\n        bytes memory operatorData,\n        bool\n    )\n        internal\n    {\n        address implementer = ERC1820_REGISTRY.getInterfaceImplementer(to, TOKENS_RECIPIENT_INTERFACE_HASH);\n        if (implementer != address(0)) {\n            IERC777Recipient(implementer).tokensReceived(operator, from, to, amount, userData, operatorData);\n        }\n    }\n}\n",
  "sourcePath": "/Users/chuckbergeron/Git/crypto/pool-together/pods/contracts/Pod.sol",
  "compiler": {
    "name": "solc",
    "version": "0.5.12+commit.7709ece9.Emscripten.clang"
  },
  "schemaVersion": "3.0.16",
  "updatedAt": "2020-04-06T22:56:41.244Z",
  "devdoc": {
    "author": "Brendan Asselstine",
    "methods": {
      "allowance(address,address)": {
        "details": "See {IERC20-allowance}.     * Note that operator and allowance concepts are orthogonal: operators may not have allowance, and accounts with allowance may not be operators themselves."
      },
      "approve(address,uint256)": {
        "details": "See {IERC20-approve}.     * Note that accounts cannot have allowance issued by their operators."
      },
      "authorizeOperator(address)": {
        "details": "See {IERC777-authorizeOperator}."
      },
      "balanceOf(address)": {
        "params": {
          "tokenHolder": "The user whose balance should be checked"
        },
        "return": "The users total balance of tokens."
      },
      "balanceOfUnderlying(address)": {
        "params": {
          "user": "The user whose balance should be checked"
        },
        "return": "The collateral value of the tokens held by the user."
      },
      "burn(uint256,bytes)": {
        "details": "See {IERC777-burn}.    * This contract does not support burning.  Redeem must be called."
      },
      "currentExchangeRateMantissa()": {
        "return": "The current exchange rate mantissa."
      },
      "decimals()": {
        "details": "See {ERC20Detailed-decimals}.     * Always returns 18, as per the [ERC777 EIP](https://eips.ethereum.org/EIPS/eip-777#backward-compatibility)."
      },
      "defaultOperators()": {
        "details": "See {IERC777-defaultOperators}."
      },
      "deposit(uint256,bytes)": {
        "params": {
          "amount": "The amount of collateral to deposit",
          "data": "Included user data"
        }
      },
      "granularity()": {
        "details": "See {IERC777-granularity}.     * This implementation always returns `1`."
      },
      "initialize(address)": {
        "params": {
          "_pool": "The Pool to bind this Pod to."
        }
      },
      "initialize(string,string,address[])": {
        "details": "`defaultOperators` may be an empty array."
      },
      "isOperatorFor(address,address)": {
        "details": "See {IERC777-isOperatorFor}."
      },
      "name()": {
        "details": "See {IERC777-name}."
      },
      "operatorBurn(address,uint256,bytes,bytes)": {
        "details": "See {IERC777-operatorBurn}.    * This contract does not support burning.  Redeem must be called."
      },
      "operatorDeposit(address,uint256,bytes,bytes)": {
        "params": {
          "amount": "The amount of collateral to deposit",
          "data": "Included user data",
          "operatorData": "Included operator data",
          "user": "The user on whose behalf to deposit"
        }
      },
      "operatorRedeem(address,uint256,bytes,bytes)": {
        "params": {
          "account": "The user who is redeeming tokens",
          "amount": "The amount of tokens to convert to collateral",
          "data": "User data included with the tx",
          "operatorData": "Operator data included with the tx"
        }
      },
      "operatorRedeemToPool(address,uint256,bytes,bytes)": {
        "params": {
          "account": "The user who is redeeming tokens",
          "amount": "The amount of tokens to convert to Pool tickets",
          "data": "User data included with the tx",
          "operatorData": "Operator data included with the tx"
        }
      },
      "operatorSend(address,address,uint256,bytes,bytes)": {
        "details": "Moves `amount` tokens from `sender` to `recipient`. The caller must be an operator of `sender`.    * If send or receive hooks are registered for `sender` and `recipient`, the corresponding functions will be called with `data` and `operatorData`. See {IERC777Sender} and {IERC777Recipient}.    * Emits a {Sent} event.    * Requirements    * - `sender` cannot be the zero address. - `sender` must have at least `amount` tokens. - the caller must be an operator for `sender`. - `recipient` cannot be the zero address. - if `recipient` is a contract, it must implement the {IERC777Recipient} interface."
      },
      "operatorWithdrawPendingDeposit(address,uint256,bytes,bytes)": {
        "params": {
          "amount": "The amount to withdraw",
          "data": "Data included by the user",
          "from": "The user on whose behalf to withdraw",
          "operatorData": "Data included by the operator"
        }
      },
      "pendingDeposit(address)": {
        "params": {
          "user": "The user whose pending collateral balance should be returned."
        },
        "return": "The amount of collateral the user has deposited that has not converted to tokens."
      },
      "redeem(uint256,bytes)": {
        "params": {
          "amount": "The amount of tokens to convert to collateral",
          "data": "User data included with the tx"
        }
      },
      "redeemToPool(uint256,bytes)": {
        "params": {
          "amount": "The amount of tokens to convert to Pool tickets",
          "data": "User data included with the tx"
        }
      },
      "revokeOperator(address)": {
        "details": "See {IERC777-revokeOperator}."
      },
      "rewarded(address,uint256,uint256)": {
        "details": "PoolTogetherRewardListener callback that is triggered by the Pool when this Pod wins.",
        "params": {
          "drawId": "The prize id that was won",
          "winnings": "The amount of collateral won in the prize"
        }
      },
      "send(address,uint256,bytes)": {
        "details": "Moves `amount` tokens from the caller's account to `recipient`.    * If send or receive hooks are registered for the caller and `recipient`, the corresponding functions will be called with `data` and empty `operatorData`. See {IERC777Sender} and {IERC777Recipient}.    * Emits a {Sent} event.    * Requirements    * - the caller must have at least `amount` tokens. - `recipient` cannot be the zero address. - if `recipient` is a contract, it must implement the {IERC777Recipient} interface."
      },
      "symbol()": {
        "details": "See {IERC777-symbol}."
      },
      "tokensReceived(address,address,address,uint256,bytes,bytes)": {
        "params": {
          "amount": "The number of tickets being transferred",
          "from": "The user whose tickets are being transferred"
        }
      },
      "totalSupply()": {
        "return": "The total supply of tokens."
      },
      "transfer(address,uint256)": {
        "details": "Moves `amount` tokens from the caller's account to `recipient`.    * Returns a boolean value indicating whether the operation succeeded.    * Emits a {Transfer} event."
      },
      "transferFrom(address,address,uint256)": {
        "details": "Moves `amount` tokens from `sender` to `recipient` using the allowance mechanism. `amount` is then deducted from the caller's allowance.    * Returns a boolean value indicating whether the operation succeeded.    * Emits a {Transfer} event."
      },
      "withdrawPendingDeposit(uint256,bytes)": {
        "params": {
          "amount": "The amount the user wishes to withdraw",
          "data": "Data included by the user"
        }
      }
    },
    "title": "PoolTogether Pod"
  },
  "userdoc": {
    "methods": {
      "balanceOf(address)": {
        "notice": "Returns the number of tokens held by the given user.  Does not include pending deposits."
      },
      "balanceOfUnderlying(address)": {
        "notice": "Returns the collateral value of the given user's tokens. If the user does not have any tokens, this will be zero.  Pending deposits are not included."
      },
      "currentExchangeRateMantissa()": {
        "notice": "Returns the mantissa of the current exchange rate."
      },
      "deposit(uint256,bytes)": {
        "notice": "Deposits into the Pod. The deposit will become Pod shares upon the next Pool reward."
      },
      "initialize(address)": {
        "notice": "Initializes the Pod."
      },
      "operatorDeposit(address,uint256,bytes,bytes)": {
        "notice": "Deposits on behalf of a user by an operator.  The deposit will become Pod shares upon the next Pool reward."
      },
      "operatorRedeem(address,uint256,bytes,bytes)": {
        "notice": "Allows an operator to redeem tokens for collateral on behalf of a user."
      },
      "operatorRedeemToPool(address,uint256,bytes,bytes)": {
        "notice": "Allows an operator to redeem tokens for Pool tickets on behalf of a user."
      },
      "operatorWithdrawPendingDeposit(address,uint256,bytes,bytes)": {
        "notice": "Allows an operator to withdraw a user's pending deposit on their behalf"
      },
      "pendingDeposit(address)": {
        "notice": "Returns the amount of collateral a user has deposited that is pending conversion to tokens."
      },
      "redeem(uint256,bytes)": {
        "notice": "Allows a user to redeem tokens for collateral."
      },
      "redeemToPool(uint256,bytes)": {
        "notice": "Allows a user to redeem tokens for Pool tickets"
      },
      "tokensReceived(address,address,address,uint256,bytes,bytes)": {
        "notice": "IERC777Recipient callback to handle direct Pool token transfers. When users transfer their Pool tickets to this contract they will be instantly converted into Pod shares."
      },
      "totalSupply()": {
        "notice": "Returns the total supply of tokens.  Does not included any pending deposits."
      },
      "withdrawPendingDeposit(uint256,bytes)": {
        "notice": "Allows a user to withdraw their pending deposit"
      }
    },
    "notice": "Allows users to own shares in pooled tickets for a PoolTogether Pool * Designed to be bound to the PoolTogether Pool that support RewardListeners. * A RewardListener is a contract that is registered to be the reward listener for an address using the ERC 1820 registry. * When the Pool picks a winner, the Pool will look for a registered RewardListener.  If one exists, it calls `rewarded` on the listener with a stipend of 200000 gas. * In this way the Pod is able to track historic exchange rates."
  }
}